:020000040800F2
:10000000FCFF0020691F00004D1F00004D1F000075
:100010004D1F00004D1F00004D1F00004D1F000030
:100020004D1F00004D1F00004D1F00004D1F000020
:100030004D1F00004D1F00004D1F00004D1F000010
:100040004D1F00004D1F00004D1F00004D1F000000
:100050004D1F00004D1F00004D1F00004D1F0000F0
:100060004D1F00004D1F00004D1F00004D1F0000E0
:100070004D1F00004D1F00004D1F00004D1F0000D0
:100080004D1F00004D1F00004D1F00004D1F0000C0
:100090004D1F00004D1F00004D1F00004D1F0000B0
:1000A0004D1F00004D1F00004D1F00004D1F0000A0
:1000B0004D1F00004D1F00004D1F00004D1F000090
:1000C0004D1F00004D1F00004D1F00004D1F000080
:1000D0004D1F00004D1F00004D1F00004D1F000070
:1000E0004D1F00004D1F00004D1F00004D1F000060
:1000F0004D1F00004D1F00004D1F00004D1F000050
:100100004D1F00004D1F00004D1F00004D1F00003F
:100110004D1F00004D1F00004D1F00004D1F00002F
:100120004D1F00004D1F00004D1F00004D1F00001F
:100130004D1F00004D1F00004D1F00004D1F00000F
:100140004D1F00004D1F00004D1F00004D1F0000FF
:1001500001480068704700BFD802002083B0CDF886
:1001600000E000F0FF031A09104603F00F021346E7
:1001700014E0194A02921FE0184A02921CE0184A41
:10018000029219E0174A029216E0174A029213E00F
:10019000164A029210E0164A02920DE00028E8D0BA
:1001A0000128E9D00228EAD00328EBD00428ECD0BB
:1001B0000528EDD00628EED0012212B29A40ADF803
:1001C000042002980A46BDF8041000F0ADF8DDF8EE
:1001D00000E003B0704700BF00080140000C014080
:1001E000001001400014014000180140001C0140B3
:1001F0000020014081B0194900EA010108460022AF
:100200000EE0042022E0082020E010201EE0202044
:100210001CE040201AE0802018E040F2001015E0B9
:100220000F498842EDD00F498842ECD00E498842F0
:10023000EBD00E498842EAD00D498842E9D00D49F9
:100240008842E8D00C498842E7D010460B4909683B
:1002500041EA000209490A6001B0704700FCFFFF53
:1002600000080140000C0140001001400014014052
:1002700000180140001C01400020014018100240FD
:1002800082B0CDF800E0034619460191FFF760FF08
:1002900040F2E83100FB01F201990A601F49097838
:1002A000C1F30311C8B21E4909180878C0B21A1D5B
:1002B0001968C140116019490988C1F3022188B247
:1002C000174909180878C0B203F20802191D096815
:1002D000C140116011490988C1F3C22188B2104997
:1002E00009180878C0B203F20C02191D0968C14050
:1002F00011600A490988C1F3813188B20949091896
:100300000978C8B203F2100203F20C010968B1FBCC
:10031000F0F11160DDF800E002B070470410024017
:10032000C8250000640C000081B0CDF800E08CB25C
:100330001546774B00EA03031E461846FFF75AFF9F
:10034000B4F1FF0F0CD1734B9D4203D14FF0333307
:100350003360D9E0422D03D14FF044333360D3E012
:100360004FF6FF739C4214D16A4B9D4207D14FF068
:1003700033333360341D4FF033332360C4E0422DF8
:1003800007D14FF044333360341D4FF044332360C2
:10039000BAE00021002005F001030BB100211DE0AF
:1003A00005F0020333B105F4C0730BB1082100E07E
:1003B000042113E005F0040333B105F020030BB171
:1003C000042100E0002109E005F0080333B105F045
:1003D00020030BB10C2100E00821FFE74E4B05EA9A
:1003E00003030BB1032009E005F400730BB10220F5
:1003F00004E005F480630BB10120FFE705F00C0376
:100400000BB10143FFE704F0FF039BB2002B3BD08D
:10041000376800201FFA84F832462E4608282CD26E
:100420004FF0010303FA00F408EA0403A34222D1C7
:1004300085004FF00F03AB40DB4307EA030401FAEA
:1004400005F344EA03031D4606F48173B3F5817F87
:1004500005D102F214044FF001038340236006F03B
:100460008203822B05D102F210044FF00103834076
:1004700023602F46FFE7401CD0E717601FFA88F083
:100480000F463146164602E00F462946A0B2B0F1AB
:10049000FF0F39D9331DD3F800800022082A30D24B
:1004A00002F208044FF0010303FA04F400EA040323
:1004B000A34224D195004FF00F03AB40DB4308EA81
:1004C000030807FA05F348EA030801F48173B3F55A
:1004D000817F07D106F2140502F208044FF00103F0
:1004E000A3402B6001F08203822B07D106F2100596
:1004F00002F208044FF00103A3402B60FFE7521CF7
:10050000CCE7331DC3F80080DDF800E001B0704790
:1005100000FCFFFF140008000008080081B000F292
:100520000C02116000F208021368C3F3000202B962
:10053000F8E700F20C02126890B201B07047FFFFBA
:1005400089B0CDF800E0834698B28C46BDF82410FF
:100550000A9E04ACADF80410ADF808002046FFF781
:100560008FFEBDF80800BDF80410644CA34512D1FD
:1005700001256DB2624C2560624D634C2560634D70
:10058000634C2560634D644C2560644D644C25606C
:10059000079C039456E0634CA34512D101256DB22C
:1005A000614C2560614D584C2560614D584C25606B
:1005B000604D594C2560604D594C2560069C039454
:1005C00040E05E4CA34512D101256DB25C4C256024
:1005D0005C4D4D4C25605C4D4D4C25605B4D4E4C4B
:1005E00025605B4D4E4C2560069C03942AE0594CD7
:1005F000A34512D101256DB2574C2560574D424C91
:100600002560574D424C2560564D434C2560564D54
:10061000434C2560069C039414E0544CA34511D12F
:1006200001256DB2524C2560524D374C2560524D1C
:10063000374C2560514D384C2560514D384C256064
:10064000069C0394ADF80410ADF80800304600F0A5
:10065000CBF8BDF80800BDF804100BF1100500241C
:100660002C600BF110052C680C432C600BF10C0571
:1006700000242C6018B140F4806080B2FFE70BF1D9
:100680000C052C6804432C600BF10C060125346822
:1006900065F34D3434600BF10C060125346865F3C5
:1006A000C30434600BF10C060125346865F3820441
:1006B00034600BF1140500242C60039D192465435C
:1006C0004FEA8C04B5FBF4F76424B7FBF4F426017D
:1006D000350964246C433C1B240104F23205642474
:1006E000B5FBF4F404F00F0446EA04040BF108052A
:1006F000A4B22C60DDF800E009B07047003801407A
:1007000038034242F1090000E4020020FFFFFFFF2E
:10071000E8020020FFFFFFFFEC020020FFFFFFFFC9
:10072000F002002000440040C4034242650900007A
:10073000FFFFFFFFFFFFFFFFFFFFFFFF004800403D
:10074000C803424249090000FFFFFFFFFFFFFFFF10
:10075000FFFFFFFF004C0040CC0342429D09000018
:10076000FFFFFFFFFFFFFFFFFFFFFFFF0050004005
:10077000D003424281090000FFFFFFFFFFFFFFFFA0
:10078000FFFFFFFF81B000230360CB009BB242EA72
:10079000030304689BB244EA03030360051D1314BA
:1007A0001C462B6864F382032B6000F21C050024B6
:1007B0002B6864F3CB232B600124036864F3861356
:1007C000036001B07047FFFF81B0ADF80010014633
:1007D000BDF800000B68C3F3C01202B9FAE70A1DA6
:1007E000106001B07047FFFF81B0CDF800E001223A
:1007F00052B23E490A6000F268010B686FF0006176
:1008000003EA0102144603F00061C90E0B4602F030
:100810000041B1F1004F02D135490A6801E0354984
:100820000A6804F47021090C0E464FF6FF7104EAC1
:1008300001010D4604F44011B1F5401F0DD16FF0D8
:10084000706102EA01010E462A490A686FF0706180
:100850000A4028490A60324616E004F48011B1F5D6
:10086000801F09D14FF00301B140C94302EA0101E1
:1008700041F070610A4607E0610D090105FA01F1D6
:10088000C9430A4042F070622BB1610D090105FABB
:1008900001F10A43FFE704F00041B1F1004F02D13A
:1008A00013490A6001E013490A6040F2000A8146D8
:1008B0004FEA8A0109EB01010968B1F1FF3F10D04D
:1008C00009F134014FEA8A03C91809680A4609EB9D
:1008D0000301096808461146FFF740FC0AF1010AC6
:1008E000E6E7DDF800E001B0704700BF00034242D8
:1008F0001C0001400400014081B0CDF800E0019DE2
:100900002C4610B408B493B28AB201460348FFF7EC
:1009100017FE02B0DDF800E001B07047003801407A
:1009200081B0CDF800E0019D2C4610B408B493B21C
:100930008AB201460348FFF703FE02B0DDF800E08B
:1009400001B070470044004081B0CDF800E081B2B2
:100950000348FFF739FFDDF800E001B0704700BF42
:100960000048004081B0CDF800E081B20348FFF7B5
:100970002BFFDDF800E001B0704700BF00440040ED
:1009800081B0CDF800E081B20348FFF71DFFDDF82C
:1009900000E001B0704700BF0050004081B0CDF8CA
:1009A00000E081B20348FFF70FFFDDF800E001B07F
:1009B000704700BF004C004081B0CDF800E081B22C
:1009C0000348FFF7ABFDDDF800E001B0704700BF62
:1009D0000038004081B0CDF800E081B20348FFF755
:1009E0009DFDDDF800E001B0704700BF0030014020
:1009F00081B0CDF800E081B20348FFF7E5FEDDF8F5
:100A000000E001B0704700BF0038014081B0CDF870
:100A100000E081B20348FFF781FDDDF800E001B09E
:100A2000704700BF003C004081B0CDF800E0019D60
:100A30002C4610B408B493B28AB201460348FFF7BB
:100A40007FFD02B0DDF800E001B0704700480040D3
:100A500081B0CDF800E04FF0420289B2FFF764FCAC
:100A6000DDF800E001B0704781B0CDF800E0044A45
:100A700089B2FFF759FCDDF800E001B0704700BF14
:100A80001400080081B0CDF800E081B20348FFF700
:100A900045FDDDF800E001B0704700BF00300140C7
:100AA00081B0CDF800E081B20348FFF737FDDDF8F3
:100AB00000E001B0704700BF003C004081B0CDF8BD
:100AC00000E081B20348FFF729FDDDF800E001B046
:100AD000704700BF0038004083B0CDF800E08DF8CB
:100AE000040002910B4C0C4B1C600C4C0C4B1C601A
:100AF000012464B20B4B1C601046FFF775FE029A8E
:100B00009DF804100848FFF73DFEDDF800E003B053
:100B1000704700BFA10A0000DC0200200D0A00009F
:100B2000E0020020BC034242003C00400149086052
:100B3000704700BFAC01224201490860704700BF06
:100B4000A801224283B0CDF800E0029000218DF888
:100B5000061000218DF807100DF1060246211170D4
:100B600000200D4C2468A04701AA0DF1060108469B
:100B70001146022200F0DCF80120074C2468A0474F
:100B800001AB591C0A7802990A701978C8B2DDF8CD
:100B900000E003B0704700BFF402002081B00A46B5
:100BA0000021C5B21046032905D2431820221A702D
:100BB000491CC9B2F7E7431800221A70491EC9B28E
:100BC00044180A23B5FBF3F203FB1252D2B23032BF
:100BD00022700A22B5FBF2F2D2B2D5B202B902E01B
:100BE000491EC9B2ECE701B07047FFFF0149086038
:100BF000704700BFB001224201490860704700BF42
:100C0000B881224201490860704700BF98812142A3
:100C100001490860704700BFA08122420149086075
:100C2000704700BFA481224201490860704700BF9D
:100C30008C01224201490860704700BF94012142A3
:100C400001490860704700BF9C812142014908604A
:100C5000704700BFB081224201490860704700BF61
:100C6000B08122420204060841F6FF27C0F2B7070E
:100C70007F1EFDD100BF00BF00BF00BF00BF704797
:100C800001490860704700BF94812242FFFFFFFFC7
:100C900044F67F77C0F212077F1EFDD100BF00BF70
:100CA00000BF00BF00BF704701490860704700BF28
:100CB00098812242026803490A60011D0A680249BC
:100CC0000A60704700030020FC0200200149086010
:100CD000704700BF9C81214283B0CDF800E00290B4
:100CE00000218DF8061000218DF807100DF1060285
:100CF0004021117000200D4C2468A04701AA0DF17D
:100D0000060108461146022200F012F80120074CA5
:100D10002468A04701AB591C0A7802990A70197817
:100D2000C8B2DDF800E003B0704700BFF402002055
:100D300084B0CDF800E0ADF80C2001900291BDF830
:100D40000C40BDF80C305B1EADF80C307CB1019B43
:100D50001B78DCB2A0B2084C2468A047029B187034
:100D6000029B5B1C0293019B5B1C0193E7E7DDF890
:100D700000E004B0704700BFFC0200200149086099
:100D8000704700BF9881214200F230031A68084979
:100D90000A6003F21C010A6806490A6000F20801B1
:100DA0000A6805490A60011D0A6804490A6070471B
:100DB0000403002008030020F4020020F8020020B1
:100DC00081B0CDF800E0094902B440F2000340F2DE
:100DD000000240F20001FFF78FFD01B0044A05490F
:100DE0000A600020DDF800E001B07047E423000055
:100DF000F1090000D402002081B0CDF800E00949DB
:100E000002B440F2000340F2000240F20001FFF79A
:100E100087FD01B0044A05490A600020DDF800E0C2
:100E200001B070477823000065090000D40200205B
:100E300081B0CDF800E00178CCB2A0B2034C2468B8
:100E4000A0470020DDF800E001B07047D402002088
:100E500081B0CDF800E0094902B440F2000340F24D
:100E6000000240F20001FFF75BFD01B0044A0549B2
:100E70000A600020DDF800E001B070477823000030
:100E800065090000D402002081B0CDF800E00949D6
:100E900002B440F2000340F2000240F20001FFF70A
:100EA000C3FD01B0044A05490A600020DDF800E0F6
:100EB00001B070475024000049090000D40200200E
:100EC00081B0CDF800E0A9E0012905D140F2200170
:100ED0006548FFF7BDFD04E040F220016248FFF7DE
:100EE000C3FDBBE0012905D140F208015F48FFF7CF
:100EF000AFFD04E040F208015C48FFF7B5FDADE04E
:100F0000012905D144F200015948FFF7A1FD04E091
:100F100044F200015648FFF7A7FD9FE0012905D1E3
:100F200040F200415148FFF793FD04E040F20041D8
:100F30004E48FFF799FD91E0012905D140F60001E7
:100F40004A48FFF785FD04E040F600014748FFF7F7
:100F50008BFD83E0012905D141F200014348FFF7F1
:100F600077FD04E041F200014048FFF77DFD75E0A8
:100F7000012905D141F200013D48FFF769FD04E078
:100F800041F200013A48FFF76FFD67E0012905D102
:100F900040F600013648FFF75BFD04E040F6000133
:100FA0003348FFF761FD59E0012905D140F24001C6
:100FB0002F48FFF74DFD04E040F240012C48FFF7B9
:100FC00053FD4BE0012905D140F220012848FFF7ED
:100FD0003FFD04E040F220012548FFF745FD3DE0DC
:100FE000012905D140F240012248FFF731FD04E01C
:100FF00040F240011F48FFF737FD2FE0012905D1DE
:1010000040F280011B48FFF723FD04E040F280011D
:101010001848FFF729FD21E0012020E000283FF4D7
:1010200053AF01283FF45EAF02283FF469AF0328B5
:101030003FF474AF04283FF47FAF05283FF48AAF34
:1010400006283FF495AF0728A0D00828ACD009287F
:10105000B8D00A28C4D00B28D0D0DDE70020DDF8B6
:1010600000E001B0704700BF0008014000100140DF
:1010700000140140000C014081B0CDF800E0A9E06F
:10108000012905D140F210016548FFF7E1FC04E0B9
:1010900040F210016248FFF7E7FCBBE0012905D1EF
:1010A00040F204015F48FFF7D3FC04E040F2040182
:1010B0005C48FFF7D9FCADE0012905D142F20001FF
:1010C0005948FFF7C5FC04E042F200015648FFF71B
:1010D000CBFC9FE0012905D140F200415148FFF7C8
:1010E000B7FC04E040F200414E48FFF7BDFC91E040
:1010F000012905D140F600014A48FFF7A9FC04E0A8
:1011000040F600014748FFF7AFFC83E0012905D115
:1011100041F200014348FFF79BFC04E041F200016B
:101120004048FFF7A1FC75E0012905D140F201011B
:101130003B48FFF78DFC04E040F201013848FFF71F
:1011400093FC67E0012905D140F200413648FFF7E2
:101150007FFC04E040F200413348FFF785FC59E092
:10116000012905D140F200212F48FFF771FC04E06E
:1011700040F200212C48FFF777FC4BE0012905D114
:1011800040F200112848FFF763FC04E040F2001130
:101190002548FFF769FC3DE0012905D140F24001F7
:1011A0002248FFF755FC04E040F240011F48FFF7DA
:1011B0005BFC2FE0012905D140F280011B48FFF7BD
:1011C00047FC04E040F280011848FFF74DFC21E0A5
:1011D000012020E000283FF453AF01283FF45EAF28
:1011E00002283FF469AF03283FF474AF04283FF4AA
:1011F0007FAF05283FF48AAF06283FF495AF072854
:10120000A0D00828ACD00928B8D00A28C4D00B2810
:10121000D0D0DDE70020DDF800E001B0704700BF6E
:10122000000801400010014000140140000C014082
:1012300081B0CDF800E0011D0A680168C8B211460E
:10124000034AFFF749FC0020DDF800E001B07047D9
:10125000BC24000081B0CDF800E0011D0A680168DF
:10126000C8B21146034AFFF737FC0020DDF800E062
:1012700001B07047BC24000001490860704700BFFE
:10128000AC01224201490860704700BFA801224218
:1012900001490860704700BFB0012242014908605F
:1012A000704700BFA881224201490860704700BF13
:1012B0008001214201490860704700BFB481224289
:1012C00001490860704700BF900121420149086050
:1012D000704700BF8801224283B0CDF800E001AB27
:1012E0003A2119705A1C010C11709A1C010A1170D4
:1012F000D91C087000200B4C2468A04702AA01A941
:10130000084611460422FFF713FD0120054C24680E
:10131000A04702A9C91C0978C8B2DDF800E003B0F3
:10132000704700BFF402002082B0CDF800E0002238
:1013300012490A7011490978814216D241F6FF27F5
:10134000C0F2B70700BF00BF7F1EFDD100BF00BFC6
:1013500000BF0B4901900846012100F0C9FA01982D
:10136000064A1178491C1170E4E706490846022133
:1013700000F0BEFADDF800E002B07047AC020020D9
:10138000A6020020A902002082B0CDF800E02A20A9
:101390008DF805000020094C2468A04701A90DF133
:1013A00005000122FFF7C4FC0120044C2468A0477B
:1013B0009DF80400DDF800E002B07047F402002060
:1013C00082B0CDF800E001AAB4211170511C087060
:1013D00000200C4C2468A0470DF1060201A9084624
:1013E00011460222FFF7A4FC0120064C2468A04706
:1013F0000DF10601491C0978C8B2DDF800E002B021
:10140000704700BFF402002081B0CDF800E00C4826
:10141000FFF762FC0B4908700A480078402805D0A5
:101420000748FFF759FC07490870F5E70448FFF73C
:1014300089FB04490870DDF800E001B0704700BF87
:10144000AB020020AA0200209BB0CDF800E0D3B28E
:10145000C4B2DAB22F2801D92F2000E0E0B2C0F1E7
:1014600030031BB29A4203DDC0F13003DAB2FFE76A
:1014700002ACB8232370631C187002208DF804009E
:10148000D0B29DF80420831C1BB29A4209DA02AB49
:101490009C18931E1BB2CB181B782370521CD2B21F
:1014A000F1E78DF8040000200C4C2468A0479DF85B
:1014B0000400851C0DF13A0402ABAAB2214618467D
:1014C000FFF736FC0120054C2468A0470DF13A03D4
:1014D0001B78D8B2DDF800E01BB07047F4020020A2
:1014E00081B00309DBB2084AD21812780A704C1C8A
:1014F00000F00F03DBB2044AD218127822708B1C62
:1015000000221A7001B07047D825000084B0CDF8D1
:1015100000E001AC3C222270631C020C1A70A31C78
:10152000020A1A70E21C1070231D0A0A1A70621D4A
:10153000117000200B4C2468A0470DF10A0301AA8A
:10154000194610460622FFF7F3FB0120054C2468DC
:10155000A0470DF10A02521D1278D0B2DDF800E06A
:1015600004B07047F402002081B00A4681B2002026
:101570008DB21146052805D20B1820221A70401C86
:10158000C0B2F7E70B1800221A70401EC0B20C1848
:101590000A23B5FBF3F203FB125292B230322270EF
:1015A0000A22B5FBF2F292B295B202B902E0401EF5
:1015B000C0B2ECE701B0704782B0CDF800E064281B
:1015C00008D9002216490A7016490846022100F07F
:1015D0008FF920E0FF2109B241438AB26421B2FBB6
:1015E000F1F189B2C1F1FF020D490A700E498DF87F
:1015F00004000846012100F07BF99DF804000B4926
:10160000FFF7CCFA0121094800F072F908490846B1
:10161000022100F06DF9DDF800E002B0704700BF74
:10162000D20200207302002083020020B4020020B6
:101630008F02002083B0CDF800E001AB3E2119708D
:101640005A1C010C11709A1C010A1170D91C0870E7
:1016500000200B4C2468A04702AA01A908461146A5
:101660000422FFF765FB0120054C2468A04702A96E
:10167000C91C0978C8B2DDF800E003B0704700BFAC
:10168000F402002086B0CDF800E000228DF8122090
:1016900000228DF813208DF814208DF815208DF878
:1016A00016208DF817200DF1120342221A700191B5
:1016B000029000201A4C2468A04703AB0DF11202DF
:1016C000194610460622FFF733FB0120144C24680C
:1016D000A0470298019903AC621C1278026002686C
:1016E00012020260A21C137802681A4302600268A8
:1016F00012020260E21C137802681A430260221D83
:1017000012780A800A8812020A80621D13780A88F9
:101710001A430A802278D0B2DDF800E006B07047A4
:10172000F402002083B0029002AEB21C1288ADF821
:10173000042001AD6A1C12781309DBB2254AD218C5
:1017400012780A704C1C6A1C127802F00F03DBB28C
:10175000204AD218127822708C1C2A781309DBB226
:101760001C4AD21812782270CC1C2A7802F00F037F
:10177000DBB2184AD218127822703288ADF80420F1
:101780000C1D6A1C12781309DBB2124AD2181278A7
:1017900022704C1D6A1C127802F00F03DBB20D4A56
:1017A000D218127822708C1D2A781309DBB2094AEC
:1017B000D21812782270CC1D2A7802F00F03DBB207
:1017C000044AD2181278227001F2080300221A701B
:1017D00003B07047D825000081B0CDF800E0104874
:1017E000FFF77AFA0F4908700D480078042808D1ED
:1017F000402040F02001C9B20A480078884200D158
:1018000005E00748FFF768FA06490870ECE7044866
:10181000FFF798F903490870DDF800E001B0704760
:10182000AB020020AA02002081B0CDF800E0012028
:10183000074C2468A047FFF72BFA0020044C2468CB
:10184000A047FFF711FADDF800E001B0704700BFD4
:10185000F802002081B0CDF800E08B4609E0584640
:10186000FFF7F8FC0AE05846FFF7E2FC06E001202B
:1018700004E00028F3D00128F5D0F8E7DDF800E017
:1018800001B0704782B0CDF800E010208DF805005F
:101890000020094C2468A04701A90DF10500012290
:1018A000FFF746FA0120044C2468A0479DF8040085
:1018B000DDF800E002B07047F402002081B0CDF8FE
:1018C00000E003460846FFF7F5F91846FFF75CFA13
:1018D0000120054C2468A0470020044C2468A04740
:1018E000DDF800E001B07047F4020020F8020020AB
:1018F00083B0CDF800E0024610460D228DF8082096
:101900000A228DF809201FE0FFF792FA23E00278FF
:101910002AB10190FFF78CFA0198401CF7E71AE012
:1019200002782AB10190FFF783FA0198401CF7E78B
:1019300002AA1046FFF77CFA0DF109021046FFF7E4
:1019400077FA08E0062007E00029DDD00129DED083
:101950000229E5D0F6E70020DDF800E003B070478B
:1019600081B0CDF800E011E00846FFF78DFA16E0EF
:101970000846FFF741FA12E00846FFF721FA0EE0A9
:101980000846FFF765FA0AE0012008E00028EBD0DE
:101990000128EDD02028EFD03028F1D0F4E7DDF891
:1019A00000E001B07047FFFF81B0CDF800E05FFAC2
:1019B00081F95FFA82FA0FE05FFA8AF15FFA89F043
:1019C000FFF75AFB0DE05FFA8AF15FFA89F0FFF743
:1019D00077FA06E0012004E00028EDD00128F2D0DB
:1019E000F8E7DDF800E001B07047FFFF82B0CDF806
:1019F00000E001A926200870491C01200870002081
:101A00000A4C2468A0470DF1060101A80222FFF745
:101A10008FF90120054C2468A0470DF10600401CF9
:101A20000078DDF800E002B0704700BFF40200204B
:101A300081B0CDF800E00C48FFF74EF90B49087073
:101A40000A480078802805D10748FFF745F907497B
:101A50000870F5E70448FFF775F804490870DDF8E9
:101A600000E001B0704700BFAB020020AA020020D6
:101A700081B0CDF800E097480221FFF739FF00213F
:101A80009548017094480078202821D29248007827
:101A90000A2818D0904800781C2814D08E48007866
:101AA0001E2810D0FFF7B0FC8B4A11788B484018E5
:101AB00001788B4801701046007801228849FFF7B1
:101AC000C3FC8849087084490878401C0870D9E72D
:101AD000FFF79AFC43F2FF57C0F26E1700BF00BF3A
:101AE0007F1EFDD100BF00BF00BF7F480121FFF76F
:101AF000FFFE4FF49030FFF7EFFB7A4908700820A3
:101B0000FFF712FCFFF740FC76490870FFF764FE10
:101B100076480221FFF7ECFE75480221FFF7E8FE48
:101B200074497548FFF7AEFD6E4908707248006849
:101B30007249FFF7F7FD72480121FFF7D9FE022134
:101B40006E48FFF7D5FE6B4800886C49FFF70CFD27
:101B50006C480121FFF7CCFE02216848FFF7C8FE60
:101B600069480221FFF7C4FE41F6FF27C0F2B7071C
:101B70007F1EFDD100BF00BF00BF00BF00BF634894
:101B80000221FFF7B5FE6420FFF716FD0021524841
:101B900001705148007820282AD24F4800780A283E
:101BA00021D04D4800781C281DD04B4800781E28B5
:101BB00019D0FFF729FC48480078032804D154487D
:101BC00001784748017006E04348017851484018C1
:101BD0000178434801704048007801224049FFF7EE
:101BE00033FC404908703C490878401C0870D0E735
:101BF000FFF70AFC43F2FF57C0F26E1700BF00BFA9
:101C00007F1EFDD100BF00BF00BF43480221FFF788
:101C10006FFE00214FF49030FFF778FC31490870D7
:101C2000FFF7DAFD3D480221FFF762FE3C48022142
:101C3000FFF75EFE2B4800783049FFF751FC39482A
:101C40000121FFF755FE02212C48FFF751FE3648CF
:101C500000782A49FFF744FC34480121FFF748FE89
:101C600002212648FFF744FE31480221FFF740FEDB
:101C700041F6FF27C0F2B7077F1EFDD100BF00BFAE
:101C800000BF00BF00BF2B480221FFF731FE4FF419
:101C90009030FFF7CFFC13490870FFF79DFD2648F1
:101CA0000221FFF725FE25480221FFF721FE2448E7
:101CB0000221FFF71DFE40F6FF57C0F2277700BF55
:101CC00000BF7F1EFDD100BF00BF00BFDDF800E0F8
:101CD00001B0704700000020AC020020A8250000E1
:101CE000AD020020AA0200202100002033000020C5
:101CF00044000020AE020020B0020020B402002008
:101D00006C0000208000002091000020B90000201D
:101D1000D202002088250000D8000020EE0000201C
:101D2000FD00002025010020AB020020350100202D
:101D30004801002070010020830100209201002052
:101D4000BA010020FFFFFFFF81B0CDF800E0284975
:101D50002848FFF7B3FD48F67F57C0F25B0700BF86
:101D600000BF7F1EFDD100BF00BF00BF224802217F
:101D7000FFF7BEFD21480221FFF7BAFDFFF754FD32
:101D80001F480221FFF7B4FDFFF77CFDFFF750FE6F
:101D90001C480221FFF7ACFDFFF728FEFFF71CFDF2
:101DA00019480221FFF7A4FD3420FFF709FB17496A
:101DB000087017480221FFF79BFD002115480170AC
:101DC00015480221FFF794FD14480221FFF790FD0A
:101DD00041F6FF27C0F2B7077F1EFDD100BF00BF4D
:101DE00000BF00BF00BFDDF800E001B0704700BFDA
:101DF000F025000028250000BB010020E3010020A1
:101E0000F1010020FD0100200D020020AA020020A7
:101E100024020020D20200204C0200207202002086
:101E200081B01548006840F0010113480160134972
:101E30001348016010480168124801400E480160D3
:101E40000D4801686FF4802001400B4801600C4888
:101E500001686FF4FE00014009480160064801680E
:101E60006FF0A0500140044801604FF000010648A7
:101E7000016001B0704700BF001002400000FFF099
:101E800004100240FFFFF6FE2C10024081B04FF01C
:101E900000094FF0000CBDEB0A0F04DCBDEB0B0F8B
:101EA00001DBD446EA464BF8049BBBEB0A0FFAD1A0
:101EB000BCEB0A0F05DDE246D9F800B00BF1040BCC
:101EC000F1E701B07047FFFF81B0CDF800E00122DB
:101ED00007210020FFF768FD012200210020FFF705
:101EE00063FD002201210020FFF75EFD0022022198
:101EF0000020FFF759FD0E4801460020FFF7AAFC1D
:101F000042F280512020FFF72BFD0A480221FFF703
:101F1000EFFC44F67F77C0F212077F1EFDD100BFB1
:101F200000BF00BF00BF00BFDDF800E001B0704798
:101F3000E82500009102002081B01CF8019B0BF8FD
:101F4000019BBBEB0A0FF8D101B0704781B0FEE7EF
:101F500001B0704781B002490248016001B070478A
:101F600040190100D802002000F00EF800F084FBB8
:101F7000FFF7F0FF00F040FBFFF7A6FFFFF7E4FEDE
:101F8000FFF776FDFCE7FEE781B0CDF800E0464ABA
:101F9000464B474C47494BF68030814206D946486C
:101FA000006840F002014448016011E045F6C0506D
:101FB000814206D94048006840F001013E48016076
:101FC00006E03D4801686FF0070001403A480160B3
:101FD000FFF726FF3948036039480460394802EAB0
:101FE00000013948016002F0010040B1194636484D
:101FF000006800F00200002800D1F8E700E0194670
:1020000002F4803040B10B462F48006800F40030E5
:10201000002800D1F8E700E00B4602F0805068B1DC
:102020002948006840F08051274801602648006830
:1020300000F00050002800D1F8E7FFE702F08060D0
:1020400078B12148006840F080611F480160114666
:102050001A461D48006800F00060002800D1F8E72B
:1020600001E011461A4601F0807070B11648006810
:1020700040F080711448016011461348006800F078
:10208000007000B9F9E70A46FFE70C48006800F065
:102090000C01900000F00C00814200D0F5E7DDF863
:1020A00000E001B0704700BF8100010502841D00FF
:1020B00044060100401901000020024004100240C3
:1020C0002C100240FFFF0F0000100240507265709C
:1020D0006172696E6720746F207265636F7264202D
:1020E00061206D6573736167652E2E2E004D6573DB
:1020F00073616765205265636F7264696E6700453E
:102100006E64206F66207265636F7264696E67002B
:102110002D2D2D2D2D2D2D2D2D2D2D2D2D2D2D2DEF
:102120002D2D2D2D2D2D2D2D2D2D2D2D2D2D2D2DDF
:102130002D2D2D2D2D2D2D004D657373616765207F
:10214000416464726573733A203078004D6573732F
:10215000616765204C656E6774683A20002D2D2DEF
:102160002D2D2D2D2D2D2D2D2D2D2D2D2D2D2D2D9F
:102170002D2D2D2D2D2D2D2D2D2D2D2D2D2D2D2D8F
:102180002D2D2D2D00507265706172696E6720745F
:102190006F20706C61792061206D65737361676574
:1021A0002E2E2E004D657373616765206973207054
:1021B0006C6179696E672E2E2E00456E64206F6605
:1021C00020706C6179696E67002D2D2D2D2D2D2DC0
:1021D0002D2D2D2D2D2D2D2D2D2D2D2D2D2D2D2D2F
:1021E0002D2D2D2D2D2D2D2D2D2D2D2D2D2D2D2D1F
:1021F0000053746174757320427974653A203078A5
:1022000000496E7465727275707420427974653A13
:10221000203078002D2D2D2D2D2D2D2D2D2D2D2DDA
:102220002D2D2D2D2D2D2D2D2D2D2D2D2D2D2D2DDE
:102230002D2D2D2D2D2D2D2D2D2D2D004D65737317
:102240006167652045726173696E672E2E2E0045A9
:102250006E64206F662065726173696E67002A2A5A
:102260002A2A2A2A2A2A2A2A2A2A2A2A2A2A2A2ACE
:102270002A2A2A2A2A2A2A2A2A2A2A2A2A2A2A2ABE
:102280002A2A2A2A2A00002D2D2D2D2D2D2D2D2DE7
:102290002D2D2D2D2D2D2D2D2D2D2D2D2D2D2D2D6E
:1022A0002D2D2D2D2D2D2D2D2D2D2D2D2D2D004375
:1022B0006869702052657365742E2E2E00506F77FA
:1022C00065722055702E2E2E00436869702045726D
:1022D0006173696E672E2E2E00436C6F636B204313
:1022E0006F6E66696775726174696F6E2E2E2E004F
:1022F0002D2D2D2D2D2D2D2D2D2D2D2D2D2D2D2D0E
:102300002D2D2D2D2D2D2D2D2D2D2D2D2D2D2D2DFD
:102310002D2D2D2D2D2D2D002A2A2A2052454326E4
:10232000504C415920636C69636B20697320696E5E
:10233000697469616C697A6564202A2A2A000056EA
:102340006F6C756D652069733A2031303025005609
:102350006F6C756D652069733A200025002A2A2A62
:1023600020496E697469616C697A696E67202A2AEE
:102370002A002E200000FFFF35000000360000007C
:10238000FFFFFFFF00000000000000000000000051
:10239000000000000000000000000000000000003D
:1023A000000000000000000000000000180800000D
:1023B0001800000000000000000000000000000005
:1023C000000000000000000000000000000000000D
:1023D00000000000000000000000000000000000FD
:1023E00008000008090000000A000000FFFFFFFFCE
:1023F00000000000000000000000000000000000DD
:1024000000000000000000000000000000000000CC
:102410000000000000000000180800001800000084
:1024200000000000000000000000000000000000AC
:10243000000000000000000000000000000000009C
:102440000000000000000000000000000400000088
:102450003800000039000000FFFFFFFF000000000F
:10246000000000000000000000000000000000006C
:10247000000000000000000000000000000000005C
:102480000000000018080000180000000000000014
:10249000000000000000000000000000000000003C
:1024A000000000000000000000000000000000002C
:1024B0000000000000000000300014082A000000A6
:1024C0002B0000002C000000FFFFFFFF00000000B9
:1024D00000000000000000000000000000000000FC
:1024E00000000000000000000000000000000000EC
:1024F000180800001808000018080000000000007C
:1025000000000000000000000000000000000000CB
:1025100000000000000000000000000000000000BB
:102520000000000000112008C1120000CD120000C0
:10253000B51200008512000079120000911200000F
:10254000A91200009D1200001D0C0000110C0000DB
:10255000050C0000410C0000FFFFFFFFFFFFFFFF25
:10256000FFFFFFFFFFFFFFFFFFFFFFFFFFFFFFFF7B
:10257000FFFFFFFFFFFFFFFFFFFFFFFFFFFFFFFF6B
:10258000FFFFFFFFFFFFFFFF64004400400000006B
:1025900000000000000026005701570000FF300235
:1025A000000000FF00FF0000A48002FF0D40504823
:1025B00000000000000028003E00D600FFFF11824E
:1025C000000000FF00FF0000000000000102030403
:1025D0000102030406070809303132333435363737
:1025E00038394142434445460700000007030000D4
:1025F0000D0A0000A10A000000B5DFF814B0DFF8F2
:1026000014A0DFF814C0FFF797FC00BD704700BFAF
:1026100000000020AA020020CC200000FFFFFFFFE6
:10262000FFFFFFFFFFFFFFFFFFFFFFFFFFFFFFFFBA
:10263000FFFFFFFFFFFFFFFFFFFFFFFFFFFFFFFFAA
:10264000FFFFFFFFFFFFFFFFFFFFFFFFFFFFFFFF9A
:10265000FFFFFFFFFFFFFFFFFFFFFFFFFFFFFFFF8A
:10266000FFFFFFFFFFFFFFFFFFFFFFFFFFFFFFFF7A
:10267000FFFFFFFFFFFFFFFF00B5DFF810B0DFF83F
:1026800010A0FFF703FC00BD704700BF0000002052
:102690000C030020FFFFFFFFFFFFFFFFFFFFFFFF17
:00000001FF
