:10000000FCFF0220D52200008D2200008D2200007E
:100010008D2200008D2200008D2200008D22000024
:100020008D2200008D2200008D2200008D22000014
:100030008D2200008D2200008D2200008D22000004
:100040008D2200008D2200008D2200008D220000F4
:100050008D2200008D2200008D2200008D220000E4
:100060008D2200008D2200008D2200008D220000D4
:100070008D2200008D2200008D2200008D220000C4
:100080008D2200008D2200008D2200008D220000B4
:100090008D2200008D2200008D2200008D220000A4
:1000A0008D2200008D2200008D2200008D22000094
:1000B0008D2200008D2200008D2200008D22000084
:1000C0008D2200008D2200008D2200008D22000074
:1000D0008D2200008D2200008D2200008D22000064
:1000E0008D2200008D2200008D2200008D22000054
:1000F0008D2200008D2200008D2200008D22000044
:100100008D2200008D2200008D2200008D22000033
:100110008D2200008D2200008D2200008D22000023
:100120008D2200008D2200008D2200008D22000013
:100130008D2200008D2200008D2200008D22000003
:100140008D2200008D2200008D2200008D220000F3
:100150008D2200008D2200008D2200008D220000E3
:100160008D2200008D2200008D2200008D220000D3
:100170008D2200008D2200008D2200008D220000C3
:100180008D2200008D2200008D2200008D220000B3
:080190008D2200008D22000009
:1022D40000F010F8FFF7DCFF00F020FDFFF7EEFF41
:1022E40000F0DCFCFFF77AFFFFF7D2FDFFF730FECA
:0422F400FCE7FEE71E
:101E800081B01CF8019B0BF8019BBBEB0A0FF8D14A
:041E900001B07047E6
:1022500081B04FF000094FF0000CBDEB0A0F04DC19
:10226000BDEB0B0F01DBD446EA464BF8049BBBEBFE
:102270000A0FFAD1BCEB0A0F05DDE246D9F800B02F
:0A2280000BF1040BF1E701B0704709
:1021E00081B0CDF800E0012207210020FFF706FEB4
:1021F000012200210020FFF701FE00220121002022
:10220000FFF7FCFD002202210020FFF7F7FD0E483A
:1022100001460020FFF754FD42F280510120FFF7F4
:10222000D5FD0A480221FFF799FD40F6FE07C0F2EE
:102230003D0700BF00BF7F1EFDD100BF00BF00BF34
:10224000DDF800E001B07047902C00004701FF1F4F
:101DFC0081B0CDF800E05FFA81F85FFA82F90FE06C
:101E0C005FFA89F15FFA88F0FFF77AFB0DE05FFA71
:101E1C0089F15FFA88F0FFF78FFA06E0012004E001
:101E2C000028EDD00128F2D0F8E7DDF800E001B091
:021E3C007047ED
:10150C0081B0CDF800E0A9E0012905D14FF004012C
:10151C006548FFF703FD04E04FF004016348FFF753
:10152C0035FDBBE0012905D14FF400615E48FFF7A2
:10153C00F5FC04E04FF400615C48FFF727FDADE0DB
:10154C00012905D14FF010015948FFF7E7FC04E0E1
:10155C004FF010015748FFF719FD9FE0012905D105
:10156C004FF020015248FFF7D9FC04E04FF0200166
:10157C005048FFF70BFD91E0012905D14FF0800198
:10158C004B48FFF7CBFC04E04FF080014948FFF7D4
:10159C00FDFC83E0012905D14FF040014448FFF7E1
:1015AC00BDFC04E04FF040014248FFF7EFFC75E052
:1015BC00012905D14FF480613F48FFF7AFFC04E0EF
:1015CC004FF480613D48FFF7E1FC67E0012905D14C
:1015DC004FF400513448FFF7A1FC04E04FF40051E4
:1015EC003248FFF7D3FC59E0012905D14FF0040133
:1015FC003348FFF793FC04E04FF004013148FFF748
:10160C00C5FC4BE0012905D14FF008012C48FFF730
:10161C0085FC04E04FF008012A48FFF7B7FC3DE0D9
:10162C00012905D14FF480712548FFF777FC04E0C0
:10163C004FF480712348FFF7A9FC2FE0012905D155
:10164C004FF400711E48FFF769FC04E04FF4007181
:10165C001C48FFF79BFC21E0012020E000283FF410
:10166C0053AF01283FF45EAF02283FF469AF032863
:10167C003FF474AF04283FF47FAF05283FF48AAFE2
:10168C0006283FF495AF0728A0D00828ACD009282D
:10169C00B8D00A28C4D00B28D0D0DDE70020DDF864
:1016AC0000E001B0704700BF50F00F4040F00F4019
:1016BC0090F00F4080F00F4010F00F4000F00F4002
:0816CC00D0F00F40C0F00F4008
:100F280081B0CDF800E0034AFFF744FDDDF800E0AA
:080F380001B070470401020042
:1009BC0081B0CDF800E0FFF791FFDDF800E001B069
:0209CC00704772
:1008E80083B0CDF800E006460C4615463046FFF7C3
:1008F80091FD40F2FF1306EA030080090026224614
:100908002946202E39D24FF0010303FA06F402EAF1
:1009180004031F46A3422ED104031A4B1C19B3002B
:10092800E51801952C68184B04EA03032B60174B54
:1009380001EA0304019B1B6843EA0404019B1C6051
:1009480001F48033B3F5803F15D08401104B1B1997
:100958001433029301F400333BB1FC43029B1B6840
:1009680003EA0404029B1C6005E0029B1B6843EA3F
:100978000704029B1C60761CC3E7DDF800E003B0A7
:10098800704700BF009004400000FFFFFFFF000019
:0409980000F00F401C
:10041C0081B040F2FF1100EA01018909084600F29F
:10042C0009024FF0010101FA02F20449096841EA9C
:10043C00020202490A6001B0704700BF38800440D4
:100F980081B0CDF800E0034AFFF70CFDDDF800E072
:080FA80001B0704704010400D0
:1013440081B0CDF800E0A9E0012905D14FF00801F2
:101354006548FFF7E7FD04E04FF008016348FFF735
:1013640019FEBBE0012905D14FF400215E48FFF7C7
:10137400D9FD04E04FF400215C48FFF70BFEADE01B
:10138400012905D14FF010015948FFF7CBFD04E0C6
:101394004FF010015748FFF7FDFD9FE0012905D1EB
:1013A4004FF020015248FFF7BDFD04E04FF020014B
:1013B4005048FFF7EFFD91E0012905D14FF080017E
:1013C4004B48FFF7AFFD04E04FF080014948FFF7B9
:1013D400E1FD83E0012905D14FF040014448FFF7C6
:1013E400A1FD04E04FF040014248FFF7D3FD75E052
:1013F400012905D14FF010013F48FFF793FD04E0A8
:101404004FF010013D48FFF7C5FD67E0012905D104
:101414004FF480713448FFF785FD04E04FF4807188
:101424003248FFF7B7FD59E0012905D14FF4803167
:101434003348FFF777FD04E04FF480313148FFF77C
:10144400A9FD4BE0012905D14FF400312C48FFF7E9
:1014540069FD04E04FF400312A48FFF79BFD3DE0AD
:10146400012905D14FF480612548FFF75BFD04E0B5
:101474004FF480612348FFF78DFD2FE0012905D14A
:101484004FF400611E48FFF74DFD04E04FF4006186
:101494001C48FFF77FFD21E0012020E000283FF4F5
:1014A40053AF01283FF45EAF02283FF469AF03282D
:1014B4003FF474AF04283FF47FAF05283FF48AAFAC
:1014C40006283FF495AF0728A0D00828ACD00928F7
:1014D400B8D00A28C4D00B28D0D0DDE70020DDF82E
:1014E40000E001B0704700BF50F00F4040F00F40E3
:1014F400D0F00F40C0F00F4010F00F4000F00F404C
:0815040090F00F4080F00F4051
:101CC00081B0CDF800E009E00846FFF715FD0AE015
:101CD0000846FFF7FFFC06E0012004E00028F3D0EF
:0E1CE0000128F5D0F8E7DDF800E001B070470C
:1016F80081B0CDF800E0011D0A680168084611466E
:10170800034AFFF72FFC0020DDF800E001B0704726
:04171800242B00007E
:100F6C0081B0CDF800E003460C4615460648FFF765
:100F7C00A3FE224619462B460348FFF723FEDDF855
:0C0F8C0000E001B0704700BF00C0024050
:100CC40081B00F49884206D10E4A0F490A600F4A83
:100CD4000F490A6012E00F49884206D10E4A0A49B8
:100CE4000A600E4A0A490A6008E00D49884205D1A3
:100CF4000C4A05490A600C4A05490A6001B070476C
:100D040000C002404D0D0000EC01FF1FB10F0000B8
:100D1400F001FF1F00D00240910E000029100000D6
:0C0D240000C00A40B10E00006D0D000080
:100BD00084B0CDF800E003910146104601900291E7
:100BE0001846FFF73DFD0299019800F01004240912
:100BF0002346019002910846FFF758FD02990291A1
:100C00000846FFF777FD0299019800F000450C684F
:100C10002C430C6000F080450C682C430C600C6881
:100C200044F440540C600D686FF4804405EA0404F9
:100C30000C6001F20C059C002E1900F00F053468C1
:100C40002C43346001F20C059C002E1900F08065E5
:100C500034682C43346001F20C059C002E1900F01E
:100C6000007534682C43346001F20C059C002E1989
:100C700000F0807534682C43346001F20C059C0050
:100C80002E1935686FF0F04405EA0404346001F26F
:100C90000C059C002E1900F00F04E50634682C4367
:100CA00034600191039A0846D9B2FFF73BFC0199E1
:100CB0000D686FF0010405EA04040C60DDF800E043
:040CC00004B07047C5
:1006600081B0CDF800E040F2000C83464FEA8C01E7
:100670000BEB01010968B1F1FF3F12D00BF134011E
:100680004FEA8C03C91809680A460BEB0301096895
:1006900008461146FFF7DAFE0CF1010C1FFA8CFC3C
:0A06A000E4E7DDF800E001B0704768
:10044C0082B0CDF800E080464FEA581202F0070265
:10045C00914608F01F04A24693010D4AD3184FF0A1
:10046C000102A240019218460A46019900F0A0FA36
:10047C004FEA0933074AD3184FEA8A029C1808F44A
:10048C00E06322681A432260DDF800E002B0704796
:08049C0000F00F400090044045
:1006AC0081B00B49884203D1012252B209490A6038
:1006BC000949884203D1012252B208490A6008490B
:1006CC00884203D1012252B206490A6001B0704738
:1006DC0000C00240B007904200D00240B4079042E4
:0806EC0000C00A4030069042F4
:1006F40081B002686FF4804102EA0101016001687F
:1007040041F00101016000F22C021149116000F274
:1007140008020021116000F20C024FF0F041116058
:1007240000F210024FF0F041116000F2300200219B
:10073400116000F2340200211160016841F440614B
:1007440001600268034942EA0101016001B0704797
:0807540000000A9A01400000B8
:1005240091B0CDF800E00F9010468DF840100E9079
:1005340001AB1846FFF7B4FF4FF0FF330D930023D0
:1005440006930023089301230A9300230B930023AB
:100554000593059B042B41D20D9B002B3ED0002319
:100564000793079B102B35D20D9B002B32D0012310
:100574000993099B032B29D20D9B3BB3099C029B36
:1005840003FB04F6059B9C00314B1B191D68079B5C
:100594009C00304B1B191B686B43B6FBF3F42046DD
:1005A4000E9BA3420ED30E9B1C1A0C940D9BA342CC
:1005B40008D90C9B0D93059B0693079B08930B90FE
:1005C400099B0A93099B5B1C0993D2E7079B5B1C5D
:1005D4000793C6E7059B5B1C0593BAE70F9B03F2E1
:1005E4000C049DF840309B00E5182C681A4B04EA73
:1005F40003032B600F9B03F20C049DF840309B0017
:10060400E5180A9B5B1EDC072B6823432B600F9BBA
:1006140003F20C049DF840309B00E518069B1B0474
:1006240003F440342B6823432B600F9B03F20C0428
:100634009DF840309B00E518089B03F00F042B68DD
:1006440023432B600B98DDF800E011B0704700BF26
:0C065400802C0000F02B0000F0FFFC7F69
:1004A40081B0CDF800E00446FFF7B0FF40F2E83138
:1004B40000FB01F3194909680A0F1849096801F09A
:1004C4007061090EC8B21549096801F47001090D7B
:1004D400CDB21249096801F47021090CCEB2D1B22F
:1004E400491C09B259430F462360221D411C09B21D
:1004F400B7FBF1F1116004F20802691C09B2B7FB01
:10050400F1F1116004F20C02711C09B2B7FBF1F1B4
:100514001160DDF800E001B0704700BF4480044082
:0C04100001480068704700BFE801FF1FB2
:1016D40081B0CDF800E0011D0A6801680846114692
:1016E400034AFFF72BFC0020DDF800E001B070474F
:0416F400B82A000010
:100F400081B0CDF800E003460C4615460648FFF791
:100F5000B9FE224619462B460348FFF739FEDDF855
:0C0F600000E001B0704700BF00D002406C
:101DCC0081B0CDF800E009E00846FFF78DFA0AE093
:101DDC000846FFF777FA06E0012004E00028F3D06C
:0E1DEC000128F5D0F8E7DDF800E001B07047FF
:1012F40081B0CDF800E0FFF7F7FD044A04490A6025
:101304000020DDF800E001B0704700BF590E000076
:04131400BC01FF1FFA
:100EEC0081B0CDF800E003460A48FFF7C5FD0A4A79
:100EFC0040F2000104B402B440F20002194640F280
:100F0C0000030448FFF788FD02B0DDF800E001B0F3
:0C0F1C00704700BF00C006404C2A0000D7
:100A840081B0304988420CD12F4A30490A60304A3B
:100A940030490A60304A31490A60314A31490A60B2
:100AA4004EE0314988420CD1304A28490A60304A24
:100AB40028490A602F4A29490A602F4A29490A60AD
:100AC4003EE02E4988420CD12D4A20490A602D4A25
:100AD40020490A602C4A21490A602C4A21490A60AB
:100AE4002EE02B4988420CD12A4A18490A602A4A26
:100AF40018490A60294A19490A60294A19490A60A9
:100B04001EE0284988420CD1274A10490A60274A26
:100B140010490A60264A11490A60264A11490A60A6
:100B24000EE0254988420BD1244A08490A60244A28
:100B340008490A60234A09490A60234A09490A60A4
:100B440001B0704700A00640D10E0000F401FF1F61
:100B5400FFFFFFFFF801FF1FFFFFFFFFFC01FF1F67
:100B6400FFFFFFFF0002FF1F00B00640750E0000EC
:100B7400FFFFFFFFFFFFFFFFFFFFFFFF00C0064077
:100B8400590E0000FFFFFFFFFFFFFFFFFFFFFFFF06
:100B940000D006403D0E0000FFFFFFFFFFFFFFFFF8
:100BA400FFFFFFFF00A00E40210E0000FFFFFFFF2C
:100BB400FFFFFFFFFFFFFFFF00B00E40310D0000FD
:0C0BC400FFFFFFFFFFFFFFFFFFFFFFFF31
:100A240085B0CDF800E001900291ADF80C20ADF84E
:100A34001030BDF81440ADF814400698FFF70EFED0
:100A44000198FFF7CBFE02990198FFF711FFBDF85B
:100A54000C100198FFF7AAFEBDF810100198FFF7DB
:100A64007BFEBDF814100198FFF792FE0198FFF782
:100A740095FE0198FFF7AAFEDDF800E005B0704787
:1007E00081B01849884204D1012252B216490A60E8
:1007F00026E01649884204D1012252B214490A6007
:100800001EE01449884204D1012252B212490A6002
:1008100016E01249884204D1012252B210490A60FE
:100820000EE01049884204D1012252B20E490A60FA
:1008300006E00E49884203D1012252B20C490A60F7
:1008400001B0704700A00640A806904200B00640E4
:10085000AC06904200C00640B006904200D0064070
:10086000B406904200A00E402805904200B00E4011
:040870002C05904281
:1008740085B0CDF800E08046894601AA1046FFF70E
:100884000FFE164A904503D0154A904500D001E06A
:10089400019800E002984FEA0912B0FBF2F291B21B
:1008A40092B2130A9BB298F800201A4388F80020E9
:1008B40008F10103CAB21A7043014FEA0912B3FBEB
:1008C400F2F34A0192B29A1AD0B208F10A031A78E2
:1008D40002431A70DDF800E005B0704700A006403E
:0408E40000B006401A
:1007B00081B0841C23784FF6EF7212B203EA020272
:1007C0002270841C0B0122781A43227001B07047FA
:10075C0081B001F0020262B1841C01F00203227824
:10076C001A432270841C01F0010322781A43227070
:10077C0007E0841C23784FF6FD7212B203EA0202E2
:06078C00227001B070476D
:0C07940081B002780A43027001B0704787
:1007A00081B0C21C117841F00401117001B0704792
:1007D00081B0C21C117841F00801117001B070475E
:1012D00081B0CDF800E0FFF785FD044A04490A60BB
:1012E0000020DDF800E001B0704700BF3D0E0000B7
:0412F000BC01FF1F1F
:100DE40081B0CDF800E003460A48FFF749FE0A4AFD
:100DF40040F2000104B402B440F20002194640F289
:100E040000030448FFF70CFE02B0DDF800E001B077
:0C0E1400704700BF00D00640E02900003D
:101D5C0083B0CDF800E0024610460D228DF8082025
:101D6C000A228DF809201FE0FFF7D6FA23E002784B
:101D7C002AB10190FFF7D0FA0198401CF7E71AE05E
:101D8C0002782AB10190FFF7C7FA0198401CF7E7D7
:101D9C0002AA1046FFF7C0FA0DF109021046FFF730
:101DAC00BBFA08E0062007E00029DDD00129DED0CF
:101DBC000229E5D0F6E70020DDF800E003B070471B
:1013240081B0CDF800E00178CCB2A0B2034C2468BF
:10133400A0470020DDF800E001B07047BC01FF1FAA
:100D4C0081B0CDF800E082B24FF080610348FFF72C
:100D5C0039FEDDF800E001B0704700BF00C0024072
:1009D00081B000F22C044FF00043236000F2340495
:1009E00093B241EA0303236000F22C031C68C4F3B2
:0A09F000C07303B9F8E701B07047C7
:100E900081B0CDF800E082B24FF080610348FFF7E7
:100EA00097FDDDF800E001B0704700BF00D00240C0
:100EB00081B0CDF800E082B24FF080610348FFF7C7
:100EC00087FDDDF800E001B0704700BF00C00A40B8
:100ED00081B0CDF800E081B20348FFF75FFDDDF897
:0C0EE00000E001B0704700BF00A0064019
:10099C0081B0ADF800100146BDF800000A1D1378B7
:1009AC00C3F3C01202B9F9E7CA1D107001B0704749
:100E740081B0CDF800E081B20348FFF78DFDDDF8C5
:0C0E840000E001B0704700BF00B0064065
:100E580081B0CDF800E081B20348FFF79BFDDDF8D3
:0C0E680000E001B0704700BF00C0064071
:100E3C0081B0CDF800E081B20348FFF7A9FDDDF8E1
:0C0E4C0000E001B0704700BF00D006407D
:100E200081B0CDF800E081B20348FFF7B7FDDDF8EF
:0C0E300000E001B0704700BF00A00E40C1
:100D300081B0CDF800E081B20348FFF72FFEDDF867
:0C0D400000E001B0704700BF00B00E40A2
:101E940081B0CDF800E024492448FFF743FF42F61F
:101EA400FE47C0F2311700BF00BF7F1EFDD100BF47
:101EB40000BF00BF1E480221FFF74EFFFFF7E8FEF8
:101EC4001C480221FFF748FFFFF710FFFFF7B6FF9A
:101ED40019480221FFF740FFFFF7B8FEFFF7F0FCB7
:101EE40016480221FFF738FF3420FFF711FD14498B
:101EF400087014480221FFF72FFF13480221FFF74F
:101F04002BFF12480221FFF727FF45F6FE17C0F208
:101F1400622700BF00BF7F1EFDD100BF00BF00BF0E
:101F2400DDF800E001B07047982C0000902B000011
:101F34005701FF1F6501FF1F7101FF1F8101FF1F73
:101F4400C201FF1F9801FF1F9901FF1FB701FF1F67
:101D280081B0CDF800E003460846FFF7A5FA18464B
:101D3800FFF7AEFA0120054C2468A0470020044CA8
:101D48002468A047DDF800E001B070470402FF1FD7
:041D58000802FF1F5F
:0C13180001490860704700BF0808FE4350
:0C17700001490860704700BF2C08FE43D0
:0C17640001490860704700BF1010FE43F0
:0C17580001490860704700BF1410FE43F8
:0C17280001490860704700BF1C10FE4320
:0C171C0001490860704700BF1810FE4330
:0C17340001490860704700BF2800FE4318
:0C174C0001490860704700BF3408FE43EC
:0C17400001490860704700BF0818FE4314
:0C10A00001490860704700BF0C18FE43B7
:0C11000001490860704700BF2018FE4342
:0C10DC0001490860704700BF2418FE4363
:0C10F40001490860704700BF0C08FE4373
:0C10E80001490860704700BF4C08FE433F
:0C11180001490860704700BF1018FE433A
:0C110C0001490860704700BF1418FE4342
:0C10AC0001490860704700BF1C18FE439B
:0C10B80001490860704700BF1818FE4393
:0C10D00001490860704700BF1000FE439B
:0C10C40001490860704700BF2008FE438F
:0C11300001490860704700BF4010FE43FA
:0C11240001490860704700BF4410FE4302
:0C113C0001490860704700BF2810FE4306
:0C11F80001490860704700BF2C10FE4346
:10128000026803490A60011D0A6802490A60704742
:081290001002FF1F0C02FF1FFA
:1012980000F230031A6808490A6003F21C010A6860
:1012A80006490A6000F208010A6805490A60011D3A
:1012B8000A6804490A6070471402FF1F1802FF1FDA
:0812C8000402FF1F0802FF1FD2
:101C940081B0CDF800E00120074C2468A047FFF78D
:101CA400BBFA0020044C2468A047FFF7A9FADDF82A
:0C1CB40000E001B0704700BF0802FF1FF5
:10121C0040F6FE07C0F23D0700BF00BF7F1EFDD1A8
:08122C0000BF00BF00BF7047C6
:1012040045F6FE17C0F2622700BF00BF7F1EFDD166
:0812140000BF00BF00BF7047DE
:101CF00082B0CDF800E010208DF805000020094CDE
:101D00002468A04701A90DF105000122FFF792FA0E
:101D10000120044C2468A0479DF80400DDF800E091
:081D200002B070470402FF1F2E
:1012340084B0CDF800E0ADF80C2001900291BDF827
:101244000C40BDF80C305B1EADF80C307CB1019B3A
:101254001B78DCB2A0B2084C2468A047029B18702B
:10126400029B5B1C0293019B5B1C0193E7E7DDF887
:0C12740000E004B0704700BF0C02FF1F38
:100FB00081B0CDF800E01749096841F001021549F8
:100FC0000A6014490A686FF4406102EA010141F4C1
:100FD000406210490A60104A10490A6010490A68C4
:100FE00010490A400E490A600A490A686FF0010177
:100FF0000A4008490A6082B24FF080610548FFF755
:10100000E7FC0448FFF7FAFC80B2DDF800E001B02D
:10101000704700BF00C0024000000A9A2CC0024086
:0810200008C00240FFFF0000C0
:1009FC0081B000F22C010A68C2F3404101B9F8E75A
:100A0C0000F2380109688BB200F22C024FF400316D
:080A1C00116098B201B07047AF
:1010280081B0CDF800E01749096841F0010215497F
:101038000A6014490A686FF4406102EA010141F448
:10104800406210490A60104A10490A6010490A684B
:1010580010490A400E490A600A490A686FF00101FE
:101068000A4008490A6082B24FF080610548FFF7DC
:10107800ABFC0448FFF7BEFC80B2DDF800E001B02D
:10108800704700BF00D0024000000A9A2CD00240EE
:0810980008D00240FFFF000038
:100D6C0081B0CDF800E01749096841F0010215493E
:100D7C000A6014490A686FF4406102EA010141F407
:100D8C00406210490A60104A10490A6010490A680A
:100D9C0010490A400E490A600A490A686FF00101BD
:100DAC000A4008490A6082B24FF080610548FFF79B
:100DBC0009FE0448FFF71CFE80B2DDF800E001B02C
:100DCC00704700BF00C00A4000000A9A2CC00A40BD
:080DDC0008C00A40FFFF0000FF
:101E400081B0CDF800E00C48FFF77EF90B4908702F
:101E50000A480078802805D10748FFF775F9074937
:101E60000870F5E70448FFF79BF904490870DDF8AE
:101E700000E001B0704700BFC301FF1FC201FF1F98
:1011480083B0CDF800E0029000218DF80610002150
:101158008DF807100DF106024021117000200D4C8A
:101168002468A04701AA0DF106010846114602228B
:1011780000F05CF80120074C2468A04701AB591C1B
:101188000A7802990A701978C8B2DDF800E003B04D
:08119800704700BF0402FF1FB5
:1011A00083B0CDF800E0029000218DF806100021F8
:1011B0008DF807100DF106024621117000200D4C2C
:1011C0002468A04701AA0DF1060108461146022233
:1011D00000F030F80120074C2468A04701AB591CEF
:1011E0000A7802990A701978C8B2DDF800E003B0F5
:0811F000704700BF0402FF1F5D
:101C500082B0CDF800E001A926200870491C0120BF
:101C6000087000200A4C2468A0470DF1060101A865
:101C70000222FFF7DFFA0120054C2468A0470DF18E
:101C80000600401C0078DDF800E002B0704700BF9D
:041C90000402FF1F2C
:1018C40081B0CDF800E01048FFF73CFC0F490870E8
:1018D4000D480078042808D1402040F02001C9B206
:1018E4000A480078884200D105E00748FFF72AFC3F
:1018F40006490870ECE70448FFF750FC03490870F8
:10190400DDF800E001B07047C301FF1FC201FF1FF3
:1019140082B0CDF800E001AAB4211170511C087006
:1019240000200C4C2468A0470DF1060201A90846CA
:1019340011460222FFF77CFC0120064C2468A047D4
:101944000DF10601491C0978C8B2DDF800E002B0C7
:08195400704700BF0402FF1FF1
:101F540081B0CDF800E086480221FFF7FDFE0021A4
:101F64008448017083480078202821D28148007871
:101F74000A2818D07F4800781C2814D07D4800789F
:101F84001E2810D0FFF7E8FC7A4A11787A484018E6
:101F940001787A4801701046007801227749FFF7EA
:101FA40043FC7749087073490878401C0870D9E7E6
:101FB400FFF7D2FC4BF2FE37C0F2C44700BF00BFAC
:101FC4007F1EFDD100BF00BF00BF6E480121FFF797
:101FD400C3FE4FF49030FFF7CFFB69490870082027
:101FE400FFF7F2FBFFF7C6FD65490870FFF768FCD1
:101FF40065480221FFF7B0FE64480221FFF7ACFEFA
:1020040063496448FFF7D2FD5D4908706148006880
:102014006149FFF7C1FC61480121FFF79DFE0221E0
:102024005D48FFF799FE5A4800885B49FFF70EFDAB
:102034005B480121FFF790FE02215748FFF78CFE11
:1020440058480221FFF788FE57480221FFF784FE13
:1020540000214848017047480078202821D245488B
:1020640000780A2818D0434800781C2814D0414826
:1020740000781E2810D0FFF76FFC3E4A11784B48B9
:10208400401801783D4801701046007801223B4910
:10209400FFF7CAFB3A49087036490878401C0870B3
:1020A400D9E7FFF759FC4BF2FE37C0F2C44700BF33
:1020B40000BF7F1EFDD100BF00BF00BF3C4802210E
:1020C400FFF74AFE00214FF49030FFF7E7FC2C495C
:1020D4000870FFF7F5FB37480221FFF73DFE36484D
:1020E4000221FFF739FE264800782B49FFF704FD4B
:1020F40032480121FFF730FE02212748FFF72CFE6A
:102104002F4800782449FFF7F7FC2E480121FFF7F8
:1021140023FE02212048FFF71FFE2B480221FFF770
:102124001BFE2A480221FFF717FE4FF49030FFF7F9
:10213400F9FC13490870FFF7C3FB25480221FFF798
:102144000BFE24480221FFF707FE23480221FFF774
:1021540003FE48F2FE37C1F2D77700BF00BF7F1EEF
:10216400FDD100BF00BF00BFDDF800E001B0704743
:102174000000FF1FC001FF1F302C0000C101FF1F22
:10218400C201FF1F1C00FF1F2E00FF1F3F00FF1F87
:10219400C801FF1FC401FF1FCA01FF1F5200FF1F18
:1021A4006400FF1F7500FF1F8800FF1F502C0000F4
:1021B400A700FF1FBD00FF1FCC00FF1FDF00FF1F94
:1021C400C301FF1FED00FF1FFE00FF1F1101FF1FD2
:0C21D4002401FF1F3301FF1F4601FF1F05
:10195C0081B0CDF800E00C48FFF7F0FB0B490870A4
:10196C000A480078402805D00748FFF7E7FB0749ED
:10197C000870F5E70448FFF70DFC04490870DDF822
:10198C0000E001B0704700BFC301FF1FC201FF1F81
:10182C009BB0CDF800E0D3B2C4B2DAB22F2801D904
:10183C002F2000E0E0B2C0F130031BB29A4203DD6E
:10184C00C0F13003DAB2FFE702ACB8232370631C9B
:10185C00187002208DF80400D0B29DF80420831C6F
:10186C001BB29A4209DA02AB9C18931E1BB2CB181E
:10187C001B782370521CD2B2F1E78DF804000020C3
:10188C000C4C2468A0479DF80400851C0DF13A040B
:10189C0002ABAAB221461846FFF7C6FC0120054C44
:1018AC002468A0470DF13A031B78D8B2DDF800E0AC
:0818BC001BB070470402FF1F7E
:10177C0083B0CDF800E001AB3A2119705A1C010C72
:10178C0011709A1C010A1170D91C087000200B4CA6
:10179C002468A04702AA01A9084611460422FFF7B3
:1017AC0043FD0120054C2468A04702A9C91C0978F7
:1017BC00C8B2DDF800E003B0704700BF0402FF1FA1
:1017CC0082B0CDF800E0002212490A701149097864
:1017DC00814216D245F6FE17C0F2622700BF00BF49
:1017EC007F1EFDD100BF00BF00BF0B490190084612
:1017FC00012100F0ADFA0198064A1178491C1170CC
:10180C00E4E706490846022100F0A2FADDF800E000
:10181C0002B07047C001FF1FB801FF1FBB01FF1FC3
:101B780082B0CDF800E02A208DF805000020094C3D
:101B88002468A04701A90DF105000122FFF74EFBCB
:101B98000120044C2468A0479DF80400DDF800E00B
:081BA80002B070470402FF1FA8
:101BB00086B0CDF800E000228DF8122000228DF8CA
:101BC00013208DF814208DF815208DF816208DF82F
:101BD00017200DF1120342221A7001910290002089
:101BE0001A4C2468A04703AB0DF1120219461046A7
:101BF0000622FFF71FFB0120144C2468A04702981F
:101C0000019903AC621C1278026002681202026041
:101C1000A21C137802681A43026002681202026072
:101C2000E21C137802681A430260221D12780A80AF
:101C30000A8812020A80621D13780A881A430A80F1
:101C40002278D0B2DDF800E006B070470402FF1F32
:10199C0083B0029002AEB21C1288ADF8042001ADE7
:1019AC006A1C12781309DBB2254AD21812780A7015
:1019BC004C1C6A1C127802F00F03DBB2204AD218BE
:1019CC00127822708C1C2A781309DBB21C4AD218AC
:1019DC0012782270CC1C2A7802F00F03DBB2184A62
:1019EC00D218127822703288ADF804200C1D6A1CB3
:1019FC0012781309DBB2124AD218127822704C1DDD
:101A0C006A1C127802F00F03DBB20D4AD21812785E
:101A1C0022708C1D2A781309DBB2094AD21812786D
:101A2C002270CC1D2A7802F00F03DBB2044AD218C4
:101A3C001278227001F2080300221A7003B070476A
:041A4C00702C0000FA
:101A500081B00A4681B200208DB21146052805D218
:101A60000B1820221A70401CC0B2F7E70B18002296
:101A70001A70401EC0B20C180A23B5FBF3F203FB28
:101A8000125292B2303222700A22B5FBF2F292B2B6
:101A900095B202B902E0401EC0B2ECE701B0704757
:101AA00084B0CDF800E001AC3C222270631C020C33
:101AB0001A70A31C020A1A70E21C1070231D0A0A75
:101AC0001A70621D117000200B4C2468A0470DF1A4
:101AD0000A0301AA194610460622FFF7ABFB0120B4
:101AE000054C2468A0470DF10A02521D1278D0B2AD
:0C1AF000DDF800E004B070470402FF1FA6
:101AFC0081B00309DBB2084AD21812780A704C1C68
:101B0C0000F00F03DBB2044AD218127822708B1C3F
:0C1B1C0000221A7001B07047702C00000D
:101B280083B0CDF800E001AB3E2119705A1C010CBE
:101B380011709A1C010A1170D91C087000200B4CF6
:101B48002468A04702AA01A9084611460422FFF703
:101B58006DFB0120054C2468A04702A9C91C09781F
:101B6800C8B2DDF800E003B0704700BF0402FF1FF1
:1022F80090B072B69748019097480290974803901B
:1023080097480490974805909748069097480790F3
:10231800974808909748099097480A9097480B90D3
:1023280097480C90974998480D9098480E900D98AA
:1023380000F007000F9001F0010050B94CF2205056
:10234800934908804DF62810088040F2D211914830
:1023580001809148007800F0010050B18F48007862
:1023680000F0080020B18D49087840F00800087096
:1023780021E08B48006840F0005189480160894895
:10238800006800F48070B0B9864801686FF4705036
:1023980001EA000040F44071824801608148006809
:1023A80040F480717F4801607E4801686FF40070D6
:1023B80001407C480160AA217B4801700D9800F01B
:1023C800100060B9794801786FF0600001407748E3
:1023D800017077480078012800D0FAE71CE00D98D2
:1023E80000F01000C0B10E997248814208D96021EE
:1023F8006E4801706E480078802800D0FAE70BE03C
:102408006A4801786FF060000140684801706848C8
:102418000078012800D0FAE7049967480160674806
:1024280001686FF440200140029800F44020014305
:1024380062480160624801686FF4403001400398C7
:1024480000F4403001435E4801600F9830B10F98A6
:10245800012803D00F98022800D061E0019800F00D
:10246800800050B9089800F0400028B10B9800F09F
:102478000300002800D100E015E05248006840F44D
:1024880000715048016050480168504801404E486A
:102498000160069800F0040028B14D4801684B48D7
:1024A80001404B4801600A994A48017005994A4819
:1024B8000170059800F0040038B14848007800F031
:1024C8001000002800D1F8E705E04448007800F043
:1024D800100000B1F9E74248007800F0BF01C9B226
:1024E800069800F0FD0001433D480170079800F090
:1024F800E0013C48007800F01F00014339480170B2
:102508000199394801700B99384801700F980228D1
:1025180005D13348007840F0020131480170B8E035
:10252800019800F0800020B90B9800F0030000B17A
:1025380065E02448006840F40071224801602248A0
:1025480001682248014020480160069800F0040014
:1025580000F04EB80000000000000C000000010070
:102568000000140122000000240000000000000008
:10257800020000004600000000000000000000000B
:10258800000000000000000007000000C0D40100A7
:102598000E2005400020054000F0074002D007400B
:1025A8003C80044010D0034000E0074001E00740B1
:1025B80003E0074080380100448004400070044074
:1025C800048004403880044048900440FFF8FFFE2F
:1025D8004C90044008400640004006400640064033
:1025E8000140064003400640005006400C400640AB
:1025F80028B17A4801687A480140784801600A9908
:10260800784801707848007800F0BF01C9B2069890
:1026180000F0FD000143744801700199734801708E
:102628000B99734801700F98072805D1059840F059
:1026380080017048017002E005996E4801700698A3
:1026480000F0040048B10B9800F0030028B96A486C
:10265800007800F0020000B9F9E7059800F00400DE
:1026680038B16548007800F01000002800D1F8E77C
:1026780005E06148007800F0100000B1F9E707981C
:1026880000F0E0015D48007800F01F0001435B485E
:102698000170089800F0BF0159480170099800F0CE
:1026A800BF0158480170089800F0400028B154480C
:1026B800007840F04001524801700F98052806D173
:1026C8004948007840F00201474801701BE00F9824
:1026D800062803D00F98072800D014E0494800784E
:1026E80040F04001474801704348007800F040003E
:1026F80000B9F9E70F98072805D13E48007800F09F
:102708003F013C4801700F9818B10F98032800D07A
:102718002CE03948007800F00C0000B1F9E73A489D
:10272800006840F00101384801604FF00001374867
:1027380001604FF08001364801604FF005013548CF
:1027480001604FF00101324801603148006800F033
:10275800800000B9F9E700212D4801602A48016886
:102768006FF001000140284801602AE00F98012815
:1027780003D00F98022800D007E01F48007800F027
:102788000C00042800D0F8E71BE00F98042806D0B6
:102798000F98062803D00F98052800D007E01648A0
:1027A800007800F00C00082800D0F8E709E00F983E
:1027B800072806D11048007800F00C000C2800D03B
:1027C800F8E7154801686FF00F0001400C9800F019
:1027D8000F0001431048016010B070474C9004404E
:1027E800FFF8FFFE08400640014006400050064042
:1027F8000C400640004006400640064003400640A4
:102808000440064005400640388004400800044063
:0C2818000000044004000440488004401C
:1022C00081B002490248016001B07047C0D40100EA
:0422D000E801FF1F03
:08228C0081B0FEE701B07047CC
:1022940081B072B60849086840F47000086000BF55
:1022A40000BF00BF00BFF1EE100A40F44000E1EEB1
:0C22B400100A62B601B0704788ED00E02F
:102CA00000B5DFF814B0DFF814A0DFF814C0FFF7A8
:102CB000E7F800BD704700BF0000FF1FBC01FF1F09
:042CC00024280000C4
:102D200000B5DFF810B0DFF810A0FFF791FA00BD92
:0C2D3000704700BF0000FF1F1C02FF1FC7
:100400000000000000000000FFFFFFFF02FDFFFFF3
:102824005072657061726520746F207265636F7297
:0C283400642061206D65737361676500AE
:102840004D657373616765205265636F7264696E6D
:0228500067001F
:10285200456E64206F66207265636F7264696E678D
:10286200002D2D2D2D2D2D2D2D2D2D2D2D2D2D2DC3
:042872002D2D2D00DB
:102876004D65737361676520416464726573733A6D
:02288600200030
:102888004D657373616765204C656E6774683A209F
:10289800002D2D2D2D2D2D2D2D2D2D2D2D2D2D2D8D
:0428A8002D2D2D00A5
:1028AC00507265706172696E6720746F20706C6114
:1028BC00792061206D6573736167652E2E2E004D36
:1028CC0065737361676520697320706C6179696EDB
:1028DC00672E2E2E00456E64206F6620706C617919
:0428EC00696E6700AA
:1028F0002D2D2D2D2D2D2D2D2D2D2D2D2D2D2D2D08
:102900002D2D0053746174757320427974653A20DB
:1029100000496E7465727275707420427974653AFC
:02292000200095
:102922002D2D2D2D2D2D2D2D2D2D2D2D2D2D2D2DD5
:102932002D2D004D65737361676520457261736962
:062942006E672E2E2E0030
:10294800456E64206F662065726173696E67002D3D
:102958002D2D2D2D2D2D2D2D2D2D2D2D2D2D2D2D9F
:022968002D0040
:10296A0000496E697469616C697A696E672E2E2EE8
:10297A0000436869702052657365742E2E2E0050CC
:10298A006F7765722055702E2E2E0043686970206D
:10299A0045726173696E672E2E2E00436C6F636BEE
:1029AA0020436F6E66696775726174696F6E2E2E49
:0229BA002E00ED
:1029BC000052454326504C415920636C69636B208F
:1029CC00697320696E697469616C697A6564000069
:0429DC002E200000A9
:1029E0005103000050030000FFFFFFFF0000000044
:1029F00000000000000000000000000000000000D7
:102A000000000000000000000000000000000000C6
:102A1000000000000000080000000800FFFFFFFFAA
:102A200000000000000000000000000000000000A6
:102A30000000000000000000000000000000000096
:0C2A40000000000000000000000000008A
:102A4C006303000062030000FFFFFFFF00000000B3
:102A5C00000000000000000000000000000000006A
:102A6C00000000000000000000000000000000005A
:102A7C00000000000000080000000800FFFFFFFF3E
:102A8C00000000000000000000000000000000003A
:102A9C00000000000000000000000000000000002A
:0C2AAC000000000000000000000000001E
:102AB800650700006707000066070000FFFFFFFFCB
:102AC80000000000000000000000000000000000FE
:102AD80000000000000000000000000000000000EE
:102AE80000000000000008000000080000000800C6
:102AF800FFFFFFFF000000000000000000000000D2
:102B080000000000000000000000000000000000BD
:0C2B1800000000000000000000000000B1
:102B2400450200004702000046020000FFFFFFFFCD
:102B34000000000000000000000000000000000091
:102B44000000000000000000000000000000000081
:102B54000000000000000800000008000000080059
:102B6400FFFFFFFF00000000000000000000000065
:102B74000000000000000000000000000000000051
:0C2B840000000000000000000000000045
:102B90001913000071170000651700005917000095
:102BA000291700001D170000351700004D17000001
:102BB00041170000A110000001110000DD1000000D
:102BC000FFFFFFFFFFFFFFFFFFFFFFFFFFFFFFFF15
:102BD000FFFFFFFFFFFFFFFFFFFFFFFFFFFFFFFF05
:102BE000FFFFFFFFFFFFFFFFFFFFFFFFFFFFFFFFF5
:102BF00002000000040000000600000008000000C1
:102C000010000000200000004000000080000000D4
:102C100000010000000200000004000000080000A5
:102C200000100000002000000040000000800000B4
:102C3000A48002000D405048000000000000280061
:102C40003E00D6FF00001182000000FF00FF0000E0
:102C50006400443040000000000000000000260036
:102C60005701570100FF3002000000FF00FF000085
:102C700030313233343536373839414243444546B2
:102C80000200000003000000050000000700000033
:082C900040420F000700008420
:082C98004D0D0000B10F00001A
:00000001FF
